:020000040000fa
:080000000004040000000000f0
:020000040000fa
:10080000ef912000007f240000018800000000001c
:100810000c000700e09d20000100200011000700ef
:10082000000020000000e000020032000000020092
:100830000000000090040200000000000040da0008
:100840000000fe004440a900000020000000e0007d
:100850000300320000002000a00188004440a800ee
:100860000000060091018800800078000000eb0085
:1008700015003700e280400032a0b4009101ba00b8
:10088000e280400032a0b4009102ba00e280400051
:1008900032a0b4000002eb00472bde00f507b200e7
:1008a000602ce10004003a000059eb008301e900ec
:1008b000fdff3e00040037006128e1000100320026
:1008c0000082eb00040007001101ba000200e00002
:1008d000e8ff3a00000006003159ba008301e90040
:1008e0000c0032002159ba008301e90008003200ef
:1008f0000400e00003003a00e280400032a0b400af
:10090000f5ff370011d9ba008301e900faff3a0078
:100910008100e800e180400032a0b4000000060041
:10092000889fbe0020102000104088000428ef009f
:100930001140800020408000790207000004be00c2
:1009400000102000104088000428ef0011408000b3
:10095000204080007202070030408800414088003b
:10096000f2ff2f00f30f2000820f5000838f5800fa
:1009700003003a0000402000304088000828ef00c3
:100980000e28ef000804e00009003a00003a800059
:1009900031ed2f0001006000030032003040800084
:1009a0006402070002003700f80f20000900200051
:1009b00011e1a9001061a8008500a9009500a90017
:1009c000f60f200007002000e14f44000d00320028
:1009d0000881fb0003002000044022000410b8003e
:1009e000440f20000491b900828040000004be0042
:1009f0007908880060088800370888005708880050
:100a000011e1a800e901070031e2a80030a2a80026
:100a10003062a80000402000901188005855250041
:100a200016a9ef00c848880008000700a0002000b1
:100a30001629b400a00220001829b4002e000700d7
:100a4000004080007b000700f5ff37000200fa003d
:100a5000889fbe008a1f78005ac5b300bf010700f7
:100a6000b011800080ff9f0011e1a900688057004d
:100a7000ac0007000ff897008a4f5000f7ff3a00cc
:100a80001600370068805700a60007000ff897008f
:100a9000e54f5000080032008a4f50000f0032002e
:100aa000e44f500006003a00000000000904e00096
:100ab000eaff3a000c0037006880570099000700f1
:100ac0000ff8970080c44400005c7800709120000b
:100ad000880f5000e1ff3200eaff37008044eb004e
:100ae00008812000e7ff37004f0578004f04be0063
:100af0000080fa0000000600889fbe0008812000e8
:100b00001844780019812000994478000904e00015
:100b100003003a0031e2a9003040800005020700de
:100b200012c8bf0002e8b70013c8bf0003e8b7004f
:100b300014c8bf0004e8b7000568ef00b0488000a3
:100b40000208b700b04888001829d400e24f5400ca
:100b50001b00320005003e000804e00008003200df
:100b6000e14f540031003a000c003700e34f5400cd
:100b70001c003200e84f54002c003a0025003700da
:100b800020c0b30012e8b70010c0b30013e8b700ec
:100b90004000200000408800240037000984fb004a
:100ba0001240800023408000080078006a0007009f
:100bb0004244dd0065044400084088001b00370003
:100bc0000980fb001629b50018a9ec00124080002e
:100bd000234080007b0007001000200000408800b8
:100be000120037000982fb00040078001629b400c7
:100bf000d0ff2f001829b40012408000234080004d
:100c00000400780002010700100020000040880066
:100c1000060037001629ed00800020001829b400d6
:100c20003a01070010002000004088004f04be0079
:100c300000000600889fbe008a9fbe000005780065
:100c40003342a80050c5b3002f00070050c5b300c1
:100c50002d0007008045eb00098120000a00e0001c
:100c600002003a008a457800130037000060fe0059
:100c70001944780088c5450050c5b300804f540022
:100c800004003200e44f540002003200e54f5400eb
:100c900002003a0050c0b3001b0007000840780073
:100ca000190007008904e8000081200000004500c9
:100cb000808f5400edff3a000b44ea0050c5b300aa
:100cc000804f540004003200e44f54000200320010
:100cd000e54f540002003a0050c0b3000a0007007c
:100ce000084078000800070040c0b3000600070075
:100cf00033c2bf000008a300fdff32004f05be0055
:100d00004f04be00000006008040780033c2bf00e0
:100d10000018a300fdff3a000180fb00a01188002d
:100d200000000600800078000060fe009011800046
:100d30006e00600002003200b01180003222a90073
:100d400032c2bf000008a300f7ff3200b0118000dc
:100d50008048780000000600889fbe008a9fbe0081
:100d60008c1f78000204be004206dd001100320034
:100d70008005eb005a812000880078000900780087
:100d800067010700004d78004801de001245980019
:100d9000214598004808de0030459800e48545006c
:100da00062044400e0844c00640545008c8f5500cb
:100db000f1ff39004f0678004f05be004f04be001a
:100dc00000000600ea874700889fbe008a9fbe0099
:100dd0008c9fbe008e1f78006044b80080bf9f00cb
:100de0000202be00d2b79f008fb89700c808dd008e
:100df000f1b79f00800032000000eb00e0b79f00d9
:100e00005e8120000060fe001e80fb0002f02f00cb
:100e100002046400000474001e4090004800dd00dd
:100e2000f10f200001046400000474002e409000c3
:100e30000080fb0082846400808474003e40900047
:100e40004800dd008184640080847400efb0970066
:100e5000e4804000e1b79f000405be00e0bf2a0027
:100e600021002000800f5200818f5a0004003a00b8
:100e70000800780000f0a1006104b8001a003700f3
:100e8000e00f5200e08f5a0008003a006140b800bd
:100e90003040880041408800084020004900200080
:100ea00010002000704088000f003700e20f520051
:100eb000e08f5a000c003a008880fb000000200000
:100ec00032408000434080000001410081814900a0
:100ed00032408800434088006044b8001000200081
:100ee000704088001400370000102000800f55006b
:100ef000e08f5d0008003a000e08e20003003200b7
:100f000038408000494080000b003700384088009e
:100f1000494088000800370021102000810f55004b
:100f2000e08f5d0004003a00584088006940880066
:100f3000f8ff2f00f90f200000c02f00f1ff2f0055
:100f40000a0640008b864800f07f2000800f560084
:100f5000e08f5e0005003600880178000901780006
:100f60008400780005007800e900070040002000b8
:100f70001629b400c0ff2f001829b400cfe897004d
:100f80000104e00015003a005fb097009000b30044
:100f90008fb8970001005000efb09700008040002c
:100fa00065005000d048880060b02a000100500061
:100fb000e0488800f07f2000800f5600e08f5e0040
:100fc0000600360010002400b50007005000200085
:100fd0001629b400a0ff2f001829b40062024500b2
:100fe000e0824d0064074700efb097007fb09700a4
:100ff000808f500083ff39004f0778004f06be00f6
:101000004f05be004f04be00af00b1000000060057
:10101000e4874700889fbe008a9fbe008c9fbe0069
:101020008e1f7800800678000204be00020078005f
:101030000d00e0002f0032000006eb009000b3002e
:101040000080460080bf9f000c06e8001629ec00d7
:101050001829ed000805be0000c02f00f1ff2f0089
:101060000800400089804800f27f2000820f500075
:10107000e08f5800190036000fb8970000074600af
:1010800067004700d0488800e0af2a000c005000fd
:10109000e0488800220424008800780009007800d5
:1010a000a600070090ff2f001629b400d0ff2f00e4
:1010b0001829b400f23f2000820f5400e08f5c003a
:1010c00006003e00de488800b0af2a000c00500049
:1010d000e04888006000b8004c0007000040200095
:1010e000010020000a0440008b8448008c8f5600c9
:1010f000d5ff3a004f0778004f06be004f05be00ef
:101100004f04be004f00b10000000600881f7800a9
:101110001840800062408000534080002110200071
:101120000000eb007a0007009800b300660454004a
:10113000d8488800c0b02a00e04888003000240069
:1011400057000700500020001629b400a0ff2f0010
:101150001829b4004f0478000000060030a2a8004f
:101160000e0037000060fe0085c0bf000008a3002d
:1011700002003200304080006e00070032c2bf0023
:101180000018a300010032003222a90032c2bf00c1
:101190000008a30001003200b011800030c2bf007f
:1011a0000058a300efff3a0000000600103a80004c
:1011b0000060a1006304200072052000217420005b
:1011c000834878008248780080487800a6c6bf002f
:1011d00001ccb30001406000a040b300a6e6b70018
:1011e000d1c6bf00014060005040b300d1e6b70057
:1011f000103a80000060a00021742000834878002d
:10120000824878008048780000000600889fbe0071
:101210008a9fbe008c1f78000004be00da48800060
:10122000eb48800004402000450020008401780045
:10123000050178008000780009007800340007007c
:10124000500020001629b400a0ff2f001829b40078
:1012500030002400120007006022b8008880e800f7
:101260008401780005017800090078002800070053
:10127000da488800eb488800500020001629b400a6
:10128000a0ff2f001829b40030002400040007003c
:101290004f0678004f05be004f04be000000060058
:1012a000003b8800b0ff2f001629b400600020002a
:1012b0001829b400b1488000d0488000808f5000c9
:1012c0000f003a00c1488000e0488000808f500045
:1012d0000b003a0050052000303b8800a00a200097
:1012e000303b880061e7a80000000000000000001b
:1012f00001c8b30061c7bf0001406000fdff3a00b4
:101300001a29ef00a0aa2a00e04888000000060081
:10131000900188008308bb008288bb0000000600a3
:10132000900188001101ba009181ba000200be004c
:10133000000006000040010000000600930180004c
:1013400090018800023b88008108bb0070002000eb
:101350001629b400300020001829b400b1488000dc
:10136000d0488000808f50000f003a00c1488000b4
:10137000e0488000808f50000b003a0050052000ac
:10138000303b8800a00a2000303b880061e7a800bd
:10139000000000000000000001c8b30061c7bf00ea
:1013a00001406000fdff3a001a29ef00a0aa2a00c0
:0c13b000e048880093018800000006005f
:020000040000fa
:020000040005f5
:0457f800fffb0000b3
:020000040000fa
:020000040005f5
:0457fc007f3e0000ec
:020000040000fa
:10000800f2090000f2090000f2090000f2090000fc
:10001800f2090000f2090000f2090000f2090000ec
:10002800f2090000f2090000f2090000f2090000dc
:10003800f2090000f2090000f2090000f2090000cc
:020000040000fa
:020000040000fa
:1013bc00160900000800000002000000ffff5500a5
:1013cc0055000000aaaa0000000800001601000049
:0813dc00000000000000000009
:020000040000fa
:0413e4000000fe0007
:00000001FF
